{
  "_format": "hh-sol-artifact-1",
  "contractName": "SolarGreen",
  "sourceName": "contracts/SolarGreen.sol",
  "abi": [
    {
      "inputs": [],
      "stateMutability": "nonpayable",
      "type": "constructor"
    },
    {
      "inputs": [],
      "name": "AccessControlBadConfirmation",
      "type": "error"
    },
    {
      "inputs": [
        {
          "internalType": "address",
          "name": "account",
          "type": "address"
        },
        {
          "internalType": "bytes32",
          "name": "neededRole",
          "type": "bytes32"
        }
      ],
      "name": "AccessControlUnauthorizedAccount",
      "type": "error"
    },
    {
      "inputs": [
        {
          "internalType": "address",
          "name": "spender",
          "type": "address"
        },
        {
          "internalType": "uint256",
          "name": "allowance",
          "type": "uint256"
        },
        {
          "internalType": "uint256",
          "name": "needed",
          "type": "uint256"
        }
      ],
      "name": "ERC20InsufficientAllowance",
      "type": "error"
    },
    {
      "inputs": [
        {
          "internalType": "address",
          "name": "sender",
          "type": "address"
        },
        {
          "internalType": "uint256",
          "name": "balance",
          "type": "uint256"
        },
        {
          "internalType": "uint256",
          "name": "needed",
          "type": "uint256"
        }
      ],
      "name": "ERC20InsufficientBalance",
      "type": "error"
    },
    {
      "inputs": [
        {
          "internalType": "address",
          "name": "approver",
          "type": "address"
        }
      ],
      "name": "ERC20InvalidApprover",
      "type": "error"
    },
    {
      "inputs": [
        {
          "internalType": "address",
          "name": "receiver",
          "type": "address"
        }
      ],
      "name": "ERC20InvalidReceiver",
      "type": "error"
    },
    {
      "inputs": [
        {
          "internalType": "address",
          "name": "sender",
          "type": "address"
        }
      ],
      "name": "ERC20InvalidSender",
      "type": "error"
    },
    {
      "inputs": [
        {
          "internalType": "address",
          "name": "spender",
          "type": "address"
        }
      ],
      "name": "ERC20InvalidSpender",
      "type": "error"
    },
    {
      "inputs": [],
      "name": "EnforcedPause",
      "type": "error"
    },
    {
      "inputs": [],
      "name": "ExpectedPause",
      "type": "error"
    },
    {
      "inputs": [],
      "name": "InvalidInitialization",
      "type": "error"
    },
    {
      "inputs": [],
      "name": "NotInitializing",
      "type": "error"
    },
    {
      "anonymous": false,
      "inputs": [
        {
          "indexed": true,
          "internalType": "address",
          "name": "owner",
          "type": "address"
        },
        {
          "indexed": true,
          "internalType": "address",
          "name": "spender",
          "type": "address"
        },
        {
          "indexed": false,
          "internalType": "uint256",
          "name": "value",
          "type": "uint256"
        }
      ],
      "name": "Approval",
      "type": "event"
    },
    {
      "anonymous": false,
      "inputs": [
        {
          "indexed": false,
          "internalType": "uint64",
          "name": "version",
          "type": "uint64"
        }
      ],
      "name": "Initialized",
      "type": "event"
    },
    {
      "anonymous": false,
      "inputs": [
        {
          "indexed": false,
          "internalType": "address",
          "name": "account",
          "type": "address"
        }
      ],
      "name": "Paused",
      "type": "event"
    },
    {
      "anonymous": false,
      "inputs": [
        {
          "indexed": true,
          "internalType": "bytes32",
          "name": "role",
          "type": "bytes32"
        },
        {
          "indexed": true,
          "internalType": "bytes32",
          "name": "previousAdminRole",
          "type": "bytes32"
        },
        {
          "indexed": true,
          "internalType": "bytes32",
          "name": "newAdminRole",
          "type": "bytes32"
        }
      ],
      "name": "RoleAdminChanged",
      "type": "event"
    },
    {
      "anonymous": false,
      "inputs": [
        {
          "indexed": true,
          "internalType": "bytes32",
          "name": "role",
          "type": "bytes32"
        },
        {
          "indexed": true,
          "internalType": "address",
          "name": "account",
          "type": "address"
        },
        {
          "indexed": true,
          "internalType": "address",
          "name": "sender",
          "type": "address"
        }
      ],
      "name": "RoleGranted",
      "type": "event"
    },
    {
      "anonymous": false,
      "inputs": [
        {
          "indexed": true,
          "internalType": "bytes32",
          "name": "role",
          "type": "bytes32"
        },
        {
          "indexed": true,
          "internalType": "address",
          "name": "account",
          "type": "address"
        },
        {
          "indexed": true,
          "internalType": "address",
          "name": "sender",
          "type": "address"
        }
      ],
      "name": "RoleRevoked",
      "type": "event"
    },
    {
      "anonymous": false,
      "inputs": [
        {
          "indexed": true,
          "internalType": "address",
          "name": "from",
          "type": "address"
        },
        {
          "indexed": true,
          "internalType": "address",
          "name": "to",
          "type": "address"
        },
        {
          "indexed": false,
          "internalType": "uint256",
          "name": "value",
          "type": "uint256"
        }
      ],
      "name": "Transfer",
      "type": "event"
    },
    {
      "anonymous": false,
      "inputs": [
        {
          "indexed": false,
          "internalType": "address",
          "name": "account",
          "type": "address"
        }
      ],
      "name": "Unpaused",
      "type": "event"
    },
    {
      "inputs": [],
      "name": "DEFAULT_ADMIN_ROLE",
      "outputs": [
        {
          "internalType": "bytes32",
          "name": "",
          "type": "bytes32"
        }
      ],
      "stateMutability": "view",
      "type": "function"
    },
    {
      "inputs": [],
      "name": "MINTER_ROLE",
      "outputs": [
        {
          "internalType": "bytes32",
          "name": "",
          "type": "bytes32"
        }
      ],
      "stateMutability": "view",
      "type": "function"
    },
    {
      "inputs": [],
      "name": "PAUSER_ROLE",
      "outputs": [
        {
          "internalType": "bytes32",
          "name": "",
          "type": "bytes32"
        }
      ],
      "stateMutability": "view",
      "type": "function"
    },
    {
      "inputs": [
        {
          "internalType": "address",
          "name": "owner",
          "type": "address"
        },
        {
          "internalType": "address",
          "name": "spender",
          "type": "address"
        }
      ],
      "name": "allowance",
      "outputs": [
        {
          "internalType": "uint256",
          "name": "",
          "type": "uint256"
        }
      ],
      "stateMutability": "view",
      "type": "function"
    },
    {
      "inputs": [
        {
          "internalType": "address",
          "name": "spender",
          "type": "address"
        },
        {
          "internalType": "uint256",
          "name": "value",
          "type": "uint256"
        }
      ],
      "name": "approve",
      "outputs": [
        {
          "internalType": "bool",
          "name": "",
          "type": "bool"
        }
      ],
      "stateMutability": "nonpayable",
      "type": "function"
    },
    {
      "inputs": [
        {
          "internalType": "address",
          "name": "account",
          "type": "address"
        }
      ],
      "name": "balanceOf",
      "outputs": [
        {
          "internalType": "uint256",
          "name": "",
          "type": "uint256"
        }
      ],
      "stateMutability": "view",
      "type": "function"
    },
    {
      "inputs": [
        {
          "internalType": "uint256",
          "name": "value",
          "type": "uint256"
        }
      ],
      "name": "burn",
      "outputs": [],
      "stateMutability": "nonpayable",
      "type": "function"
    },
    {
      "inputs": [
        {
          "internalType": "address",
          "name": "account",
          "type": "address"
        },
        {
          "internalType": "uint256",
          "name": "value",
          "type": "uint256"
        }
      ],
      "name": "burnFrom",
      "outputs": [],
      "stateMutability": "nonpayable",
      "type": "function"
    },
    {
      "inputs": [],
      "name": "decimals",
      "outputs": [
        {
          "internalType": "uint8",
          "name": "",
          "type": "uint8"
        }
      ],
      "stateMutability": "view",
      "type": "function"
    },
    {
      "inputs": [
        {
          "internalType": "bytes32",
          "name": "role",
          "type": "bytes32"
        }
      ],
      "name": "getRoleAdmin",
      "outputs": [
        {
          "internalType": "bytes32",
          "name": "",
          "type": "bytes32"
        }
      ],
      "stateMutability": "view",
      "type": "function"
    },
    {
      "inputs": [
        {
          "internalType": "bytes32",
          "name": "role",
          "type": "bytes32"
        },
        {
          "internalType": "address",
          "name": "account",
          "type": "address"
        }
      ],
      "name": "grantRole",
      "outputs": [],
      "stateMutability": "nonpayable",
      "type": "function"
    },
    {
      "inputs": [
        {
          "internalType": "bytes32",
          "name": "role",
          "type": "bytes32"
        },
        {
          "internalType": "address",
          "name": "account",
          "type": "address"
        }
      ],
      "name": "hasRole",
      "outputs": [
        {
          "internalType": "bool",
          "name": "",
          "type": "bool"
        }
      ],
      "stateMutability": "view",
      "type": "function"
    },
    {
      "inputs": [
        {
          "internalType": "address",
          "name": "defaultAdmin",
          "type": "address"
        },
        {
          "internalType": "address",
          "name": "pauser",
          "type": "address"
        },
        {
          "internalType": "address",
          "name": "minter",
          "type": "address"
        }
      ],
      "name": "initialize",
      "outputs": [],
      "stateMutability": "nonpayable",
      "type": "function"
    },
    {
      "inputs": [
        {
          "internalType": "address",
          "name": "to",
          "type": "address"
        },
        {
          "internalType": "uint256",
          "name": "amount",
          "type": "uint256"
        }
      ],
      "name": "mint",
      "outputs": [],
      "stateMutability": "nonpayable",
      "type": "function"
    },
    {
      "inputs": [],
      "name": "name",
      "outputs": [
        {
          "internalType": "string",
          "name": "",
          "type": "string"
        }
      ],
      "stateMutability": "view",
      "type": "function"
    },
    {
      "inputs": [],
      "name": "pause",
      "outputs": [],
      "stateMutability": "nonpayable",
      "type": "function"
    },
    {
      "inputs": [],
      "name": "paused",
      "outputs": [
        {
          "internalType": "bool",
          "name": "",
          "type": "bool"
        }
      ],
      "stateMutability": "view",
      "type": "function"
    },
    {
      "inputs": [
        {
          "internalType": "bytes32",
          "name": "role",
          "type": "bytes32"
        },
        {
          "internalType": "address",
          "name": "callerConfirmation",
          "type": "address"
        }
      ],
      "name": "renounceRole",
      "outputs": [],
      "stateMutability": "nonpayable",
      "type": "function"
    },
    {
      "inputs": [
        {
          "internalType": "bytes32",
          "name": "role",
          "type": "bytes32"
        },
        {
          "internalType": "address",
          "name": "account",
          "type": "address"
        }
      ],
      "name": "revokeRole",
      "outputs": [],
      "stateMutability": "nonpayable",
      "type": "function"
    },
    {
      "inputs": [
        {
          "internalType": "bytes4",
          "name": "interfaceId",
          "type": "bytes4"
        }
      ],
      "name": "supportsInterface",
      "outputs": [
        {
          "internalType": "bool",
          "name": "",
          "type": "bool"
        }
      ],
      "stateMutability": "view",
      "type": "function"
    },
    {
      "inputs": [],
      "name": "symbol",
      "outputs": [
        {
          "internalType": "string",
          "name": "",
          "type": "string"
        }
      ],
      "stateMutability": "view",
      "type": "function"
    },
    {
      "inputs": [],
      "name": "totalSupply",
      "outputs": [
        {
          "internalType": "uint256",
          "name": "",
          "type": "uint256"
        }
      ],
      "stateMutability": "view",
      "type": "function"
    },
    {
      "inputs": [
        {
          "internalType": "address",
          "name": "to",
          "type": "address"
        },
        {
          "internalType": "uint256",
          "name": "value",
          "type": "uint256"
        }
      ],
      "name": "transfer",
      "outputs": [
        {
          "internalType": "bool",
          "name": "",
          "type": "bool"
        }
      ],
      "stateMutability": "nonpayable",
      "type": "function"
    },
    {
      "inputs": [
        {
          "internalType": "address",
          "name": "from",
          "type": "address"
        },
        {
          "internalType": "address",
          "name": "to",
          "type": "address"
        },
        {
          "internalType": "uint256",
          "name": "value",
          "type": "uint256"
        }
      ],
      "name": "transferFrom",
      "outputs": [
        {
          "internalType": "bool",
          "name": "",
          "type": "bool"
        }
      ],
      "stateMutability": "nonpayable",
      "type": "function"
    },
    {
      "inputs": [],
      "name": "unpause",
      "outputs": [],
      "stateMutability": "nonpayable",
      "type": "function"
    }
  ],
  "bytecode": "0x60806040523480156200001157600080fd5b50620000226200002860201b60201c565b6200019c565b60006200003a6200013260201b60201c565b90508060000160089054906101000a900460ff161562000086576040517ff92ee8a900000000000000000000000000000000000000000000000000000000815260040160405180910390fd5b67ffffffffffffffff80168160000160009054906101000a900467ffffffffffffffff1667ffffffffffffffff16146200012f5767ffffffffffffffff8160000160006101000a81548167ffffffffffffffff021916908367ffffffffffffffff1602179055507fc7f505b2f371ae2175ee4913f4499e1f2633a7b5936321eed1cdaeb6115181d267ffffffffffffffff6040516200012691906200017f565b60405180910390a15b50565b60007ff0c57e16840df040f15088dc2f81fe391c3923bec73e23a9662efc9c229c6a00905090565b600067ffffffffffffffff82169050919050565b62000179816200015a565b82525050565b60006020820190506200019660008301846200016e565b92915050565b6126b680620001ac6000396000f3fe608060405234801561001057600080fd5b50600436106101735760003560e01c80635c975abb116100de578063a217fddf11610097578063d539139311610071578063d539139314610438578063d547741f14610456578063dd62ed3e14610472578063e63ab1e9146104a257610173565b8063a217fddf146103ce578063a9059cbb146103ec578063c0c53b8b1461041c57610173565b80635c975abb1461030c57806370a082311461032a57806379cc67901461035a5780638456cb591461037657806391d148541461038057806395d89b41146103b057610173565b80632f2ff15d116101305780632f2ff15d14610274578063313ce5671461029057806336568abe146102ae5780633f4ba83a146102ca57806340c10f19146102d457806342966c68146102f057610173565b806301ffc9a71461017857806306fdde03146101a8578063095ea7b3146101c657806318160ddd146101f657806323b872dd14610214578063248a9ca314610244575b600080fd5b610192600480360381019061018d9190611b73565b6104c0565b60405161019f9190611bbb565b60405180910390f35b6101b061053a565b6040516101bd9190611c66565b60405180910390f35b6101e060048036038101906101db9190611d1c565b6105db565b6040516101ed9190611bbb565b60405180910390f35b6101fe6105fe565b60405161020b9190611d6b565b60405180910390f35b61022e60048036038101906102299190611d86565b610616565b60405161023b9190611bbb565b60405180910390f35b61025e60048036038101906102599190611e0f565b610645565b60405161026b9190611e4b565b60405180910390f35b61028e60048036038101906102899190611e66565b610673565b005b610298610695565b6040516102a59190611ec2565b60405180910390f35b6102c860048036038101906102c39190611e66565b61069e565b005b6102d2610719565b005b6102ee60048036038101906102e99190611d1c565b61074e565b005b61030a60048036038101906103059190611edd565b610872565b005b610314610886565b6040516103219190611bbb565b60405180910390f35b610344600480360381019061033f9190611f0a565b6108ab565b6040516103519190611d6b565b60405180910390f35b610374600480360381019061036f9190611d1c565b610902565b005b61037e610922565b005b61039a60048036038101906103959190611e66565b610957565b6040516103a79190611bbb565b60405180910390f35b6103b86109d0565b6040516103c59190611c66565b60405180910390f35b6103d6610a71565b6040516103e39190611e4b565b60405180910390f35b61040660048036038101906104019190611d1c565b610a78565b6040516104139190611bbb565b60405180910390f35b61043660048036038101906104319190611f37565b610a9b565b005b610440610d40565b60405161044d9190611e4b565b60405180910390f35b610470600480360381019061046b9190611e66565b610d64565b005b61048c60048036038101906104879190611f8a565b610d86565b6040516104999190611d6b565b60405180910390f35b6104aa610e1b565b6040516104b79190611e4b565b60405180910390f35b60007f7965db0b000000000000000000000000000000000000000000000000000000007bffffffffffffffffffffffffffffffffffffffffffffffffffffffff1916827bffffffffffffffffffffffffffffffffffffffffffffffffffffffff19161480610533575061053282610e3f565b5b9050919050565b60606000610546610ea9565b905080600301805461055790611ff9565b80601f016020809104026020016040519081016040528092919081815260200182805461058390611ff9565b80156105d05780601f106105a5576101008083540402835291602001916105d0565b820191906000526020600020905b8154815290600101906020018083116105b357829003601f168201915b505050505091505090565b6000806105e6610ed1565b90506105f3818585610ed9565b600191505092915050565b600080610609610ea9565b9050806002015491505090565b600080610621610ed1565b905061062e858285610eeb565b610639858585610f7f565b60019150509392505050565b600080610650611073565b905080600001600084815260200190815260200160002060010154915050919050565b61067c82610645565b6106858161109b565b61068f83836110af565b50505050565b60006012905090565b6106a6610ed1565b73ffffffffffffffffffffffffffffffffffffffff168173ffffffffffffffffffffffffffffffffffffffff161461070a576040517f6697b23200000000000000000000000000000000000000000000000000000000815260040160405180910390fd5b61071482826111b0565b505050565b7f65d7a28e3265b37a6474929f336521b332c1681b933f6cb9f3376673440d862a6107438161109b565b61074b6112b2565b50565b7f9f2df0fed2c77648de5860a4cc508cd0818c85b8b8a1ab4ceeef8d981c8956a66107788161109b565b690a968163f0a57b400000826000808673ffffffffffffffffffffffffffffffffffffffff1673ffffffffffffffffffffffffffffffffffffffff168152602001908152602001600020546107cd9190612059565b111561080e576040517f08c379a0000000000000000000000000000000000000000000000000000000008152600401610805906120ff565b60405180910390fd5b816000808573ffffffffffffffffffffffffffffffffffffffff1673ffffffffffffffffffffffffffffffffffffffff168152602001908152602001600020600082825461085c9190612059565b9250508190555061086d8383611324565b505050565b61088361087d610ed1565b826113a6565b50565b600080610891611428565b90508060000160009054906101000a900460ff1691505090565b6000806108b6610ea9565b90508060000160008473ffffffffffffffffffffffffffffffffffffffff1673ffffffffffffffffffffffffffffffffffffffff16815260200190815260200160002054915050919050565b6109148261090e610ed1565b83610eeb565b61091e82826113a6565b5050565b7f65d7a28e3265b37a6474929f336521b332c1681b933f6cb9f3376673440d862a61094c8161109b565b610954611450565b50565b600080610962611073565b905080600001600085815260200190815260200160002060000160008473ffffffffffffffffffffffffffffffffffffffff1673ffffffffffffffffffffffffffffffffffffffff16815260200190815260200160002060009054906101000a900460ff1691505092915050565b606060006109dc610ea9565b90508060040180546109ed90611ff9565b80601f0160208091040260200160405190810160405280929190818152602001828054610a1990611ff9565b8015610a665780601f10610a3b57610100808354040283529160200191610a66565b820191906000526020600020905b815481529060010190602001808311610a4957829003601f168201915b505050505091505090565b6000801b81565b600080610a83610ed1565b9050610a90818585610f7f565b600191505092915050565b6000610aa56114c2565b905060008160000160089054906101000a900460ff1615905060008260000160009054906101000a900467ffffffffffffffff1690506000808267ffffffffffffffff16148015610af35750825b9050600060018367ffffffffffffffff16148015610b28575060003073ffffffffffffffffffffffffffffffffffffffff163b145b905081158015610b36575080155b15610b6d576040517ff92ee8a900000000000000000000000000000000000000000000000000000000815260040160405180910390fd5b60018560000160006101000a81548167ffffffffffffffff021916908367ffffffffffffffff1602179055508315610bbd5760018560000160086101000a81548160ff0219169083151502179055505b610c316040518060400160405280600a81526020017f536f6c6172477265656e000000000000000000000000000000000000000000008152506040518060400160405280600381526020017f53475200000000000000000000000000000000000000000000000000000000008152506114ea565b610c39611500565b610c4161150a565b610c4961151c565b610c566000801b896110af565b50610c817f65d7a28e3265b37a6474929f336521b332c1681b933f6cb9f3376673440d862a886110af565b50610caf33610c8e610695565b600a610c9a9190612252565b6402540be400610caa919061229d565b611324565b610cd97f9f2df0fed2c77648de5860a4cc508cd0818c85b8b8a1ab4ceeef8d981c8956a6876110af565b508315610d365760008560000160086101000a81548160ff0219169083151502179055507fc7f505b2f371ae2175ee4913f4499e1f2633a7b5936321eed1cdaeb6115181d26001604051610d2d9190612338565b60405180910390a15b5050505050505050565b7f9f2df0fed2c77648de5860a4cc508cd0818c85b8b8a1ab4ceeef8d981c8956a681565b610d6d82610645565b610d768161109b565b610d8083836111b0565b50505050565b600080610d91610ea9565b90508060010160008573ffffffffffffffffffffffffffffffffffffffff1673ffffffffffffffffffffffffffffffffffffffff16815260200190815260200160002060008473ffffffffffffffffffffffffffffffffffffffff1673ffffffffffffffffffffffffffffffffffffffff1681526020019081526020016000205491505092915050565b7f65d7a28e3265b37a6474929f336521b332c1681b933f6cb9f3376673440d862a81565b60007f01ffc9a7000000000000000000000000000000000000000000000000000000007bffffffffffffffffffffffffffffffffffffffffffffffffffffffff1916827bffffffffffffffffffffffffffffffffffffffffffffffffffffffff1916149050919050565b60007f52c63247e1f47db19d5ce0460030c497f067ca4cebf71ba98eeadabe20bace00905090565b600033905090565b610ee68383836001611526565b505050565b6000610ef78484610d86565b90507fffffffffffffffffffffffffffffffffffffffffffffffffffffffffffffffff8114610f795781811015610f69578281836040517ffb8f41b2000000000000000000000000000000000000000000000000000000008152600401610f6093929190612362565b60405180910390fd5b610f7884848484036000611526565b5b50505050565b600073ffffffffffffffffffffffffffffffffffffffff168373ffffffffffffffffffffffffffffffffffffffff1603610ff15760006040517f96c6fd1e000000000000000000000000000000000000000000000000000000008152600401610fe89190612399565b60405180910390fd5b600073ffffffffffffffffffffffffffffffffffffffff168273ffffffffffffffffffffffffffffffffffffffff16036110635760006040517fec442f0500000000000000000000000000000000000000000000000000000000815260040161105a9190612399565b60405180910390fd5b61106e83838361170c565b505050565b60007f02dd7bc7dec4dceedda775e58dd541e08a116c6c53815c0bd028192f7b626800905090565b6110ac816110a7610ed1565b61171c565b50565b6000806110ba611073565b90506110c68484610957565b6111a457600181600001600086815260200190815260200160002060000160008573ffffffffffffffffffffffffffffffffffffffff1673ffffffffffffffffffffffffffffffffffffffff16815260200190815260200160002060006101000a81548160ff021916908315150217905550611140610ed1565b73ffffffffffffffffffffffffffffffffffffffff168373ffffffffffffffffffffffffffffffffffffffff16857f2f8788117e7eff1d82e926ec794901d17c78024a50270940304540a733656f0d60405160405180910390a460019150506111aa565b60009150505b92915050565b6000806111bb611073565b90506111c78484610957565b156112a657600081600001600086815260200190815260200160002060000160008573ffffffffffffffffffffffffffffffffffffffff1673ffffffffffffffffffffffffffffffffffffffff16815260200190815260200160002060006101000a81548160ff021916908315150217905550611242610ed1565b73ffffffffffffffffffffffffffffffffffffffff168373ffffffffffffffffffffffffffffffffffffffff16857ff6391f5c32d9c69d2a47ea670b442974b53935d1edc7fd64eb21e047a839171b60405160405180910390a460019150506112ac565b60009150505b92915050565b6112ba61176d565b60006112c4611428565b905060008160000160006101000a81548160ff0219169083151502179055507f5db9ee0a495bf2e6ff9c91a7834c1ba4fdd244a5e8aa4e537bd38aeae4b073aa61130c610ed1565b6040516113199190612399565b60405180910390a150565b600073ffffffffffffffffffffffffffffffffffffffff168273ffffffffffffffffffffffffffffffffffffffff16036113965760006040517fec442f0500000000000000000000000000000000000000000000000000000000815260040161138d9190612399565b60405180910390fd5b6113a26000838361170c565b5050565b600073ffffffffffffffffffffffffffffffffffffffff168273ffffffffffffffffffffffffffffffffffffffff16036114185760006040517f96c6fd1e00000000000000000000000000000000000000000000000000000000815260040161140f9190612399565b60405180910390fd5b6114248260008361170c565b5050565b60007fcd5ed15c6e187e77e9aee88184c21f4f2182ab5827cb3b7e07fbedcd63f03300905090565b6114586117ad565b6000611462611428565b905060018160000160006101000a81548160ff0219169083151502179055507f62e78cea01bee320cd4e420270b5ea74000d11b0c9f74754ebdbfc544b05a2586114aa610ed1565b6040516114b79190612399565b60405180910390a150565b60007ff0c57e16840df040f15088dc2f81fe391c3923bec73e23a9662efc9c229c6a00905090565b6114f26117ee565b6114fc828261182e565b5050565b6115086117ee565b565b6115126117ee565b61151a61186b565b565b6115246117ee565b565b6000611530610ea9565b9050600073ffffffffffffffffffffffffffffffffffffffff168573ffffffffffffffffffffffffffffffffffffffff16036115a45760006040517fe602df0500000000000000000000000000000000000000000000000000000000815260040161159b9190612399565b60405180910390fd5b600073ffffffffffffffffffffffffffffffffffffffff168473ffffffffffffffffffffffffffffffffffffffff16036116165760006040517f94280d6200000000000000000000000000000000000000000000000000000000815260040161160d9190612399565b60405180910390fd5b828160010160008773ffffffffffffffffffffffffffffffffffffffff1673ffffffffffffffffffffffffffffffffffffffff16815260200190815260200160002060008673ffffffffffffffffffffffffffffffffffffffff1673ffffffffffffffffffffffffffffffffffffffff168152602001908152602001600020819055508115611705578373ffffffffffffffffffffffffffffffffffffffff168573ffffffffffffffffffffffffffffffffffffffff167f8c5be1e5ebec7d5bd14f71427d1e84f3dd0314c0f7b2291e5b200ac8c7c3b925856040516116fc9190611d6b565b60405180910390a35b5050505050565b61171783838361189f565b505050565b6117268282610957565b6117695780826040517fe2517d3f0000000000000000000000000000000000000000000000000000000081526004016117609291906123b4565b60405180910390fd5b5050565b611775610886565b6117ab576040517f8dfc202b00000000000000000000000000000000000000000000000000000000815260040160405180910390fd5b565b6117b5610886565b156117ec576040517fd93c066500000000000000000000000000000000000000000000000000000000815260040160405180910390fd5b565b6117f66118b7565b61182c576040517fd7e6bcf800000000000000000000000000000000000000000000000000000000815260040160405180910390fd5b565b6118366117ee565b6000611840610ea9565b90508281600301908161185391906125ae565b508181600401908161186591906125ae565b50505050565b6118736117ee565b600061187d611428565b905060008160000160006101000a81548160ff02191690831515021790555050565b6118a76117ad565b6118b28383836118d7565b505050565b60006118c16114c2565b60000160089054906101000a900460ff16905090565b60006118e1610ea9565b9050600073ffffffffffffffffffffffffffffffffffffffff168473ffffffffffffffffffffffffffffffffffffffff1603611937578181600201600082825461192b9190612059565b92505081905550611a10565b60008160000160008673ffffffffffffffffffffffffffffffffffffffff1673ffffffffffffffffffffffffffffffffffffffff168152602001908152602001600020549050828110156119c6578481846040517fe450d38c0000000000000000000000000000000000000000000000000000000081526004016119bd93929190612362565b60405180910390fd5b8281038260000160008773ffffffffffffffffffffffffffffffffffffffff1673ffffffffffffffffffffffffffffffffffffffff16815260200190815260200160002081905550505b600073ffffffffffffffffffffffffffffffffffffffff168373ffffffffffffffffffffffffffffffffffffffff1603611a5b57818160020160008282540392505081905550611aab565b818160000160008573ffffffffffffffffffffffffffffffffffffffff1673ffffffffffffffffffffffffffffffffffffffff168152602001908152602001600020600082825401925050819055505b8273ffffffffffffffffffffffffffffffffffffffff168473ffffffffffffffffffffffffffffffffffffffff167fddf252ad1be2c89b69c2b068fc378daa952ba7f163c4a11628f55a4df523b3ef84604051611b089190611d6b565b60405180910390a350505050565b600080fd5b60007fffffffff0000000000000000000000000000000000000000000000000000000082169050919050565b611b5081611b1b565b8114611b5b57600080fd5b50565b600081359050611b6d81611b47565b92915050565b600060208284031215611b8957611b88611b16565b5b6000611b9784828501611b5e565b91505092915050565b60008115159050919050565b611bb581611ba0565b82525050565b6000602082019050611bd06000830184611bac565b92915050565b600081519050919050565b600082825260208201905092915050565b60005b83811015611c10578082015181840152602081019050611bf5565b60008484015250505050565b6000601f19601f8301169050919050565b6000611c3882611bd6565b611c428185611be1565b9350611c52818560208601611bf2565b611c5b81611c1c565b840191505092915050565b60006020820190508181036000830152611c808184611c2d565b905092915050565b600073ffffffffffffffffffffffffffffffffffffffff82169050919050565b6000611cb382611c88565b9050919050565b611cc381611ca8565b8114611cce57600080fd5b50565b600081359050611ce081611cba565b92915050565b6000819050919050565b611cf981611ce6565b8114611d0457600080fd5b50565b600081359050611d1681611cf0565b92915050565b60008060408385031215611d3357611d32611b16565b5b6000611d4185828601611cd1565b9250506020611d5285828601611d07565b9150509250929050565b611d6581611ce6565b82525050565b6000602082019050611d806000830184611d5c565b92915050565b600080600060608486031215611d9f57611d9e611b16565b5b6000611dad86828701611cd1565b9350506020611dbe86828701611cd1565b9250506040611dcf86828701611d07565b9150509250925092565b6000819050919050565b611dec81611dd9565b8114611df757600080fd5b50565b600081359050611e0981611de3565b92915050565b600060208284031215611e2557611e24611b16565b5b6000611e3384828501611dfa565b91505092915050565b611e4581611dd9565b82525050565b6000602082019050611e606000830184611e3c565b92915050565b60008060408385031215611e7d57611e7c611b16565b5b6000611e8b85828601611dfa565b9250506020611e9c85828601611cd1565b9150509250929050565b600060ff82169050919050565b611ebc81611ea6565b82525050565b6000602082019050611ed76000830184611eb3565b92915050565b600060208284031215611ef357611ef2611b16565b5b6000611f0184828501611d07565b91505092915050565b600060208284031215611f2057611f1f611b16565b5b6000611f2e84828501611cd1565b91505092915050565b600080600060608486031215611f5057611f4f611b16565b5b6000611f5e86828701611cd1565b9350506020611f6f86828701611cd1565b9250506040611f8086828701611cd1565b9150509250925092565b60008060408385031215611fa157611fa0611b16565b5b6000611faf85828601611cd1565b9250506020611fc085828601611cd1565b9150509250929050565b7f4e487b7100000000000000000000000000000000000000000000000000000000600052602260045260246000fd5b6000600282049050600182168061201157607f821691505b60208210810361202457612023611fca565b5b50919050565b7f4e487b7100000000000000000000000000000000000000000000000000000000600052601160045260246000fd5b600061206482611ce6565b915061206f83611ce6565b92508282019050808211156120875761208661202a565b5b92915050565b7f45786365656473206d6178696d756d20746f6b656e73207065722077616c6c6560008201527f7400000000000000000000000000000000000000000000000000000000000000602082015250565b60006120e9602183611be1565b91506120f48261208d565b604082019050919050565b60006020820190508181036000830152612118816120dc565b9050919050565b60008160011c9050919050565b6000808291508390505b6001851115612176578086048111156121525761215161202a565b5b60018516156121615780820291505b808102905061216f8561211f565b9450612136565b94509492505050565b60008261218f576001905061224b565b8161219d576000905061224b565b81600181146121b357600281146121bd576121ec565b600191505061224b565b60ff8411156121cf576121ce61202a565b5b8360020a9150848211156121e6576121e561202a565b5b5061224b565b5060208310610133831016604e8410600b84101617156122215782820a90508381111561221c5761221b61202a565b5b61224b565b61222e848484600161212c565b925090508184048111156122455761224461202a565b5b81810290505b9392505050565b600061225d82611ce6565b915061226883611ea6565b92506122957fffffffffffffffffffffffffffffffffffffffffffffffffffffffffffffffff848461217f565b905092915050565b60006122a882611ce6565b91506122b383611ce6565b92508282026122c181611ce6565b915082820484148315176122d8576122d761202a565b5b5092915050565b6000819050919050565b600067ffffffffffffffff82169050919050565b6000819050919050565b600061232261231d612318846122df565b6122fd565b6122e9565b9050919050565b61233281612307565b82525050565b600060208201905061234d6000830184612329565b92915050565b61235c81611ca8565b82525050565b60006060820190506123776000830186612353565b6123846020830185611d5c565b6123916040830184611d5c565b949350505050565b60006020820190506123ae6000830184612353565b92915050565b60006040820190506123c96000830185612353565b6123d66020830184611e3c565b9392505050565b7f4e487b7100000000000000000000000000000000000000000000000000000000600052604160045260246000fd5b60008190508160005260206000209050919050565b60006020601f8301049050919050565b600082821b905092915050565b60006008830261246e7fffffffffffffffffffffffffffffffffffffffffffffffffffffffffffffffff82612431565b6124788683612431565b95508019841693508086168417925050509392505050565b60006124ab6124a66124a184611ce6565b6122fd565b611ce6565b9050919050565b6000819050919050565b6124c583612490565b6124d96124d1826124b2565b84845461243e565b825550505050565b600090565b6124ee6124e1565b6124f98184846124bc565b505050565b5b8181101561251d576125126000826124e6565b6001810190506124ff565b5050565b601f821115612562576125338161240c565b61253c84612421565b8101602085101561254b578190505b61255f61255785612421565b8301826124fe565b50505b505050565b600082821c905092915050565b600061258560001984600802612567565b1980831691505092915050565b600061259e8383612574565b9150826002028217905092915050565b6125b782611bd6565b67ffffffffffffffff8111156125d0576125cf6123dd565b5b6125da8254611ff9565b6125e5828285612521565b600060209050601f8311600181146126185760008415612606578287015190505b6126108582612592565b865550612678565b601f1984166126268661240c565b60005b8281101561264e57848901518255600182019150602085019450602081019050612629565b8683101561266b5784890151612667601f891682612574565b8355505b6001600288020188555050505b50505050505056fea2646970667358221220938cafa8f8a6e798b804348d7aaea1ecc2398d20ff52f94d3dabc13f8081c7b864736f6c63430008180033",
  "linkReferences": {},
  "deployedLinkReferences": {}
}