{
  "_format": "hh-sol-artifact-1",
  "contractName": "SolarGreen",
  "sourceName": "contracts/SolarGreen.sol",
  "abi": [
    {
      "inputs": [],
      "stateMutability": "nonpayable",
      "type": "constructor"
    },
    {
      "inputs": [],
      "name": "AccessControlBadConfirmation",
      "type": "error"
    },
    {
      "inputs": [
        {
          "internalType": "address",
          "name": "account",
          "type": "address"
        },
        {
          "internalType": "bytes32",
          "name": "neededRole",
          "type": "bytes32"
        }
      ],
      "name": "AccessControlUnauthorizedAccount",
      "type": "error"
    },
    {
      "inputs": [
        {
          "internalType": "address",
          "name": "spender",
          "type": "address"
        },
        {
          "internalType": "uint256",
          "name": "allowance",
          "type": "uint256"
        },
        {
          "internalType": "uint256",
          "name": "needed",
          "type": "uint256"
        }
      ],
      "name": "ERC20InsufficientAllowance",
      "type": "error"
    },
    {
      "inputs": [
        {
          "internalType": "address",
          "name": "sender",
          "type": "address"
        },
        {
          "internalType": "uint256",
          "name": "balance",
          "type": "uint256"
        },
        {
          "internalType": "uint256",
          "name": "needed",
          "type": "uint256"
        }
      ],
      "name": "ERC20InsufficientBalance",
      "type": "error"
    },
    {
      "inputs": [
        {
          "internalType": "address",
          "name": "approver",
          "type": "address"
        }
      ],
      "name": "ERC20InvalidApprover",
      "type": "error"
    },
    {
      "inputs": [
        {
          "internalType": "address",
          "name": "receiver",
          "type": "address"
        }
      ],
      "name": "ERC20InvalidReceiver",
      "type": "error"
    },
    {
      "inputs": [
        {
          "internalType": "address",
          "name": "sender",
          "type": "address"
        }
      ],
      "name": "ERC20InvalidSender",
      "type": "error"
    },
    {
      "inputs": [
        {
          "internalType": "address",
          "name": "spender",
          "type": "address"
        }
      ],
      "name": "ERC20InvalidSpender",
      "type": "error"
    },
    {
      "inputs": [],
      "name": "EnforcedPause",
      "type": "error"
    },
    {
      "inputs": [],
      "name": "ExpectedPause",
      "type": "error"
    },
    {
      "inputs": [],
      "name": "InvalidInitialization",
      "type": "error"
    },
    {
      "inputs": [],
      "name": "NotInitializing",
      "type": "error"
    },
    {
      "anonymous": false,
      "inputs": [
        {
          "indexed": true,
          "internalType": "address",
          "name": "owner",
          "type": "address"
        },
        {
          "indexed": true,
          "internalType": "address",
          "name": "spender",
          "type": "address"
        },
        {
          "indexed": false,
          "internalType": "uint256",
          "name": "value",
          "type": "uint256"
        }
      ],
      "name": "Approval",
      "type": "event"
    },
    {
      "anonymous": false,
      "inputs": [
        {
          "indexed": false,
          "internalType": "uint64",
          "name": "version",
          "type": "uint64"
        }
      ],
      "name": "Initialized",
      "type": "event"
    },
    {
      "anonymous": false,
      "inputs": [
        {
          "indexed": false,
          "internalType": "address",
          "name": "account",
          "type": "address"
        }
      ],
      "name": "Paused",
      "type": "event"
    },
    {
      "anonymous": false,
      "inputs": [
        {
          "indexed": true,
          "internalType": "bytes32",
          "name": "role",
          "type": "bytes32"
        },
        {
          "indexed": true,
          "internalType": "bytes32",
          "name": "previousAdminRole",
          "type": "bytes32"
        },
        {
          "indexed": true,
          "internalType": "bytes32",
          "name": "newAdminRole",
          "type": "bytes32"
        }
      ],
      "name": "RoleAdminChanged",
      "type": "event"
    },
    {
      "anonymous": false,
      "inputs": [
        {
          "indexed": true,
          "internalType": "bytes32",
          "name": "role",
          "type": "bytes32"
        },
        {
          "indexed": true,
          "internalType": "address",
          "name": "account",
          "type": "address"
        },
        {
          "indexed": true,
          "internalType": "address",
          "name": "sender",
          "type": "address"
        }
      ],
      "name": "RoleGranted",
      "type": "event"
    },
    {
      "anonymous": false,
      "inputs": [
        {
          "indexed": true,
          "internalType": "bytes32",
          "name": "role",
          "type": "bytes32"
        },
        {
          "indexed": true,
          "internalType": "address",
          "name": "account",
          "type": "address"
        },
        {
          "indexed": true,
          "internalType": "address",
          "name": "sender",
          "type": "address"
        }
      ],
      "name": "RoleRevoked",
      "type": "event"
    },
    {
      "anonymous": false,
      "inputs": [
        {
          "indexed": true,
          "internalType": "address",
          "name": "from",
          "type": "address"
        },
        {
          "indexed": true,
          "internalType": "address",
          "name": "to",
          "type": "address"
        },
        {
          "indexed": false,
          "internalType": "uint256",
          "name": "value",
          "type": "uint256"
        }
      ],
      "name": "Transfer",
      "type": "event"
    },
    {
      "anonymous": false,
      "inputs": [
        {
          "indexed": false,
          "internalType": "address",
          "name": "account",
          "type": "address"
        }
      ],
      "name": "Unpaused",
      "type": "event"
    },
    {
      "inputs": [],
      "name": "DEFAULT_ADMIN_ROLE",
      "outputs": [
        {
          "internalType": "bytes32",
          "name": "",
          "type": "bytes32"
        }
      ],
      "stateMutability": "view",
      "type": "function"
    },
    {
      "inputs": [],
      "name": "MINTER_ROLE",
      "outputs": [
        {
          "internalType": "bytes32",
          "name": "",
          "type": "bytes32"
        }
      ],
      "stateMutability": "view",
      "type": "function"
    },
    {
      "inputs": [],
      "name": "PAUSER_ROLE",
      "outputs": [
        {
          "internalType": "bytes32",
          "name": "",
          "type": "bytes32"
        }
      ],
      "stateMutability": "view",
      "type": "function"
    },
    {
      "inputs": [
        {
          "internalType": "address",
          "name": "owner",
          "type": "address"
        },
        {
          "internalType": "address",
          "name": "spender",
          "type": "address"
        }
      ],
      "name": "allowance",
      "outputs": [
        {
          "internalType": "uint256",
          "name": "",
          "type": "uint256"
        }
      ],
      "stateMutability": "view",
      "type": "function"
    },
    {
      "inputs": [
        {
          "internalType": "address",
          "name": "spender",
          "type": "address"
        },
        {
          "internalType": "uint256",
          "name": "value",
          "type": "uint256"
        }
      ],
      "name": "approve",
      "outputs": [
        {
          "internalType": "bool",
          "name": "",
          "type": "bool"
        }
      ],
      "stateMutability": "nonpayable",
      "type": "function"
    },
    {
      "inputs": [
        {
          "internalType": "address",
          "name": "account",
          "type": "address"
        }
      ],
      "name": "balanceOf",
      "outputs": [
        {
          "internalType": "uint256",
          "name": "",
          "type": "uint256"
        }
      ],
      "stateMutability": "view",
      "type": "function"
    },
    {
      "inputs": [
        {
          "internalType": "uint256",
          "name": "value",
          "type": "uint256"
        }
      ],
      "name": "burn",
      "outputs": [],
      "stateMutability": "nonpayable",
      "type": "function"
    },
    {
      "inputs": [
        {
          "internalType": "address",
          "name": "account",
          "type": "address"
        },
        {
          "internalType": "uint256",
          "name": "value",
          "type": "uint256"
        }
      ],
      "name": "burnFrom",
      "outputs": [],
      "stateMutability": "nonpayable",
      "type": "function"
    },
    {
      "inputs": [],
      "name": "decimals",
      "outputs": [
        {
          "internalType": "uint8",
          "name": "",
          "type": "uint8"
        }
      ],
      "stateMutability": "view",
      "type": "function"
    },
    {
      "inputs": [
        {
          "internalType": "bytes32",
          "name": "role",
          "type": "bytes32"
        }
      ],
      "name": "getRoleAdmin",
      "outputs": [
        {
          "internalType": "bytes32",
          "name": "",
          "type": "bytes32"
        }
      ],
      "stateMutability": "view",
      "type": "function"
    },
    {
      "inputs": [
        {
          "internalType": "bytes32",
          "name": "role",
          "type": "bytes32"
        },
        {
          "internalType": "address",
          "name": "account",
          "type": "address"
        }
      ],
      "name": "grantRole",
      "outputs": [],
      "stateMutability": "nonpayable",
      "type": "function"
    },
    {
      "inputs": [
        {
          "internalType": "bytes32",
          "name": "role",
          "type": "bytes32"
        },
        {
          "internalType": "address",
          "name": "account",
          "type": "address"
        }
      ],
      "name": "hasRole",
      "outputs": [
        {
          "internalType": "bool",
          "name": "",
          "type": "bool"
        }
      ],
      "stateMutability": "view",
      "type": "function"
    },
    {
      "inputs": [
        {
          "internalType": "address",
          "name": "defaultAdmin",
          "type": "address"
        },
        {
          "internalType": "address",
          "name": "pauser",
          "type": "address"
        },
        {
          "internalType": "address",
          "name": "minter",
          "type": "address"
        }
      ],
      "name": "initialize",
      "outputs": [],
      "stateMutability": "nonpayable",
      "type": "function"
    },
    {
      "inputs": [
        {
          "internalType": "address",
          "name": "to",
          "type": "address"
        },
        {
          "internalType": "uint256",
          "name": "amount",
          "type": "uint256"
        }
      ],
      "name": "mint",
      "outputs": [],
      "stateMutability": "nonpayable",
      "type": "function"
    },
    {
      "inputs": [],
      "name": "name",
      "outputs": [
        {
          "internalType": "string",
          "name": "",
          "type": "string"
        }
      ],
      "stateMutability": "view",
      "type": "function"
    },
    {
      "inputs": [],
      "name": "pause",
      "outputs": [],
      "stateMutability": "nonpayable",
      "type": "function"
    },
    {
      "inputs": [],
      "name": "paused",
      "outputs": [
        {
          "internalType": "bool",
          "name": "",
          "type": "bool"
        }
      ],
      "stateMutability": "view",
      "type": "function"
    },
    {
      "inputs": [
        {
          "internalType": "bytes32",
          "name": "role",
          "type": "bytes32"
        },
        {
          "internalType": "address",
          "name": "callerConfirmation",
          "type": "address"
        }
      ],
      "name": "renounceRole",
      "outputs": [],
      "stateMutability": "nonpayable",
      "type": "function"
    },
    {
      "inputs": [
        {
          "internalType": "bytes32",
          "name": "role",
          "type": "bytes32"
        },
        {
          "internalType": "address",
          "name": "account",
          "type": "address"
        }
      ],
      "name": "revokeRole",
      "outputs": [],
      "stateMutability": "nonpayable",
      "type": "function"
    },
    {
      "inputs": [
        {
          "internalType": "bytes4",
          "name": "interfaceId",
          "type": "bytes4"
        }
      ],
      "name": "supportsInterface",
      "outputs": [
        {
          "internalType": "bool",
          "name": "",
          "type": "bool"
        }
      ],
      "stateMutability": "view",
      "type": "function"
    },
    {
      "inputs": [],
      "name": "symbol",
      "outputs": [
        {
          "internalType": "string",
          "name": "",
          "type": "string"
        }
      ],
      "stateMutability": "view",
      "type": "function"
    },
    {
      "inputs": [],
      "name": "totalSupply",
      "outputs": [
        {
          "internalType": "uint256",
          "name": "",
          "type": "uint256"
        }
      ],
      "stateMutability": "view",
      "type": "function"
    },
    {
      "inputs": [
        {
          "internalType": "address",
          "name": "to",
          "type": "address"
        },
        {
          "internalType": "uint256",
          "name": "value",
          "type": "uint256"
        }
      ],
      "name": "transfer",
      "outputs": [
        {
          "internalType": "bool",
          "name": "",
          "type": "bool"
        }
      ],
      "stateMutability": "nonpayable",
      "type": "function"
    },
    {
      "inputs": [
        {
          "internalType": "address",
          "name": "from",
          "type": "address"
        },
        {
          "internalType": "address",
          "name": "to",
          "type": "address"
        },
        {
          "internalType": "uint256",
          "name": "value",
          "type": "uint256"
        }
      ],
      "name": "transferFrom",
      "outputs": [
        {
          "internalType": "bool",
          "name": "",
          "type": "bool"
        }
      ],
      "stateMutability": "nonpayable",
      "type": "function"
    },
    {
      "inputs": [],
      "name": "unpause",
      "outputs": [],
      "stateMutability": "nonpayable",
      "type": "function"
    }
  ],
  "bytecode": "0x60806040523480156200001157600080fd5b50620000226200002860201b60201c565b6200019c565b60006200003a6200013260201b60201c565b90508060000160089054906101000a900460ff161562000086576040517ff92ee8a900000000000000000000000000000000000000000000000000000000815260040160405180910390fd5b67ffffffffffffffff80168160000160009054906101000a900467ffffffffffffffff1667ffffffffffffffff16146200012f5767ffffffffffffffff8160000160006101000a81548167ffffffffffffffff021916908367ffffffffffffffff1602179055507fc7f505b2f371ae2175ee4913f4499e1f2633a7b5936321eed1cdaeb6115181d267ffffffffffffffff6040516200012691906200017f565b60405180910390a15b50565b60007ff0c57e16840df040f15088dc2f81fe391c3923bec73e23a9662efc9c229c6a00905090565b600067ffffffffffffffff82169050919050565b62000179816200015a565b82525050565b60006020820190506200019660008301846200016e565b92915050565b61253980620001ac6000396000f3fe608060405234801561001057600080fd5b50600436106101735760003560e01c80635c975abb116100de578063a217fddf11610097578063d539139311610071578063d539139314610438578063d547741f14610456578063dd62ed3e14610472578063e63ab1e9146104a257610173565b8063a217fddf146103ce578063a9059cbb146103ec578063c0c53b8b1461041c57610173565b80635c975abb1461030c57806370a082311461032a57806379cc67901461035a5780638456cb591461037657806391d148541461038057806395d89b41146103b057610173565b80632f2ff15d116101305780632f2ff15d14610274578063313ce5671461029057806336568abe146102ae5780633f4ba83a146102ca57806340c10f19146102d457806342966c68146102f057610173565b806301ffc9a71461017857806306fdde03146101a8578063095ea7b3146101c657806318160ddd146101f657806323b872dd14610214578063248a9ca314610244575b600080fd5b610192600480360381019061018d9190611a88565b6104c0565b60405161019f9190611ad0565b60405180910390f35b6101b061053a565b6040516101bd9190611b7b565b60405180910390f35b6101e060048036038101906101db9190611c31565b6105db565b6040516101ed9190611ad0565b60405180910390f35b6101fe6105fe565b60405161020b9190611c80565b60405180910390f35b61022e60048036038101906102299190611c9b565b610616565b60405161023b9190611ad0565b60405180910390f35b61025e60048036038101906102599190611d24565b610645565b60405161026b9190611d60565b60405180910390f35b61028e60048036038101906102899190611d7b565b610673565b005b610298610695565b6040516102a59190611dd7565b60405180910390f35b6102c860048036038101906102c39190611d7b565b61069e565b005b6102d2610719565b005b6102ee60048036038101906102e99190611c31565b61074e565b005b61030a60048036038101906103059190611df2565b610787565b005b61031461079b565b6040516103219190611ad0565b60405180910390f35b610344600480360381019061033f9190611e1f565b6107c0565b6040516103519190611c80565b60405180910390f35b610374600480360381019061036f9190611c31565b610817565b005b61037e610837565b005b61039a60048036038101906103959190611d7b565b61086c565b6040516103a79190611ad0565b60405180910390f35b6103b86108e5565b6040516103c59190611b7b565b60405180910390f35b6103d6610986565b6040516103e39190611d60565b60405180910390f35b61040660048036038101906104019190611c31565b61098d565b6040516104139190611ad0565b60405180910390f35b61043660048036038101906104319190611e4c565b6109b0565b005b610440610c55565b60405161044d9190611d60565b60405180910390f35b610470600480360381019061046b9190611d7b565b610c79565b005b61048c60048036038101906104879190611e9f565b610c9b565b6040516104999190611c80565b60405180910390f35b6104aa610d30565b6040516104b79190611d60565b60405180910390f35b60007f7965db0b000000000000000000000000000000000000000000000000000000007bffffffffffffffffffffffffffffffffffffffffffffffffffffffff1916827bffffffffffffffffffffffffffffffffffffffffffffffffffffffff19161480610533575061053282610d54565b5b9050919050565b60606000610546610dbe565b905080600301805461055790611f0e565b80601f016020809104026020016040519081016040528092919081815260200182805461058390611f0e565b80156105d05780601f106105a5576101008083540402835291602001916105d0565b820191906000526020600020905b8154815290600101906020018083116105b357829003601f168201915b505050505091505090565b6000806105e6610de6565b90506105f3818585610dee565b600191505092915050565b600080610609610dbe565b9050806002015491505090565b600080610621610de6565b905061062e858285610e00565b610639858585610e94565b60019150509392505050565b600080610650610f88565b905080600001600084815260200190815260200160002060010154915050919050565b61067c82610645565b61068581610fb0565b61068f8383610fc4565b50505050565b60006012905090565b6106a6610de6565b73ffffffffffffffffffffffffffffffffffffffff168173ffffffffffffffffffffffffffffffffffffffff161461070a576040517f6697b23200000000000000000000000000000000000000000000000000000000815260040160405180910390fd5b61071482826110c5565b505050565b7f65d7a28e3265b37a6474929f336521b332c1681b933f6cb9f3376673440d862a61074381610fb0565b61074b6111c7565b50565b7f9f2df0fed2c77648de5860a4cc508cd0818c85b8b8a1ab4ceeef8d981c8956a661077881610fb0565b6107828383611239565b505050565b610798610792610de6565b826112bb565b50565b6000806107a661133d565b90508060000160009054906101000a900460ff1691505090565b6000806107cb610dbe565b90508060000160008473ffffffffffffffffffffffffffffffffffffffff1673ffffffffffffffffffffffffffffffffffffffff16815260200190815260200160002054915050919050565b61082982610823610de6565b83610e00565b61083382826112bb565b5050565b7f65d7a28e3265b37a6474929f336521b332c1681b933f6cb9f3376673440d862a61086181610fb0565b610869611365565b50565b600080610877610f88565b905080600001600085815260200190815260200160002060000160008473ffffffffffffffffffffffffffffffffffffffff1673ffffffffffffffffffffffffffffffffffffffff16815260200190815260200160002060009054906101000a900460ff1691505092915050565b606060006108f1610dbe565b905080600401805461090290611f0e565b80601f016020809104026020016040519081016040528092919081815260200182805461092e90611f0e565b801561097b5780601f106109505761010080835404028352916020019161097b565b820191906000526020600020905b81548152906001019060200180831161095e57829003601f168201915b505050505091505090565b6000801b81565b600080610998610de6565b90506109a5818585610e94565b600191505092915050565b60006109ba6113d7565b905060008160000160089054906101000a900460ff1615905060008260000160009054906101000a900467ffffffffffffffff1690506000808267ffffffffffffffff16148015610a085750825b9050600060018367ffffffffffffffff16148015610a3d575060003073ffffffffffffffffffffffffffffffffffffffff163b145b905081158015610a4b575080155b15610a82576040517ff92ee8a900000000000000000000000000000000000000000000000000000000815260040160405180910390fd5b60018560000160006101000a81548167ffffffffffffffff021916908367ffffffffffffffff1602179055508315610ad25760018560000160086101000a81548160ff0219169083151502179055505b610b466040518060400160405280600a81526020017f536f6c6172477265656e000000000000000000000000000000000000000000008152506040518060400160405280600381526020017f53475200000000000000000000000000000000000000000000000000000000008152506113ff565b610b4e611415565b610b5661141f565b610b5e611431565b610b6b6000801b89610fc4565b50610b967f65d7a28e3265b37a6474929f336521b332c1681b933f6cb9f3376673440d862a88610fc4565b50610bc433610ba3610695565b600a610baf91906120a1565b6402540be400610bbf91906120ec565b611239565b610bee7f9f2df0fed2c77648de5860a4cc508cd0818c85b8b8a1ab4ceeef8d981c8956a687610fc4565b508315610c4b5760008560000160086101000a81548160ff0219169083151502179055507fc7f505b2f371ae2175ee4913f4499e1f2633a7b5936321eed1cdaeb6115181d26001604051610c429190612187565b60405180910390a15b5050505050505050565b7f9f2df0fed2c77648de5860a4cc508cd0818c85b8b8a1ab4ceeef8d981c8956a681565b610c8282610645565b610c8b81610fb0565b610c9583836110c5565b50505050565b600080610ca6610dbe565b90508060010160008573ffffffffffffffffffffffffffffffffffffffff1673ffffffffffffffffffffffffffffffffffffffff16815260200190815260200160002060008473ffffffffffffffffffffffffffffffffffffffff1673ffffffffffffffffffffffffffffffffffffffff1681526020019081526020016000205491505092915050565b7f65d7a28e3265b37a6474929f336521b332c1681b933f6cb9f3376673440d862a81565b60007f01ffc9a7000000000000000000000000000000000000000000000000000000007bffffffffffffffffffffffffffffffffffffffffffffffffffffffff1916827bffffffffffffffffffffffffffffffffffffffffffffffffffffffff1916149050919050565b60007f52c63247e1f47db19d5ce0460030c497f067ca4cebf71ba98eeadabe20bace00905090565b600033905090565b610dfb838383600161143b565b505050565b6000610e0c8484610c9b565b90507fffffffffffffffffffffffffffffffffffffffffffffffffffffffffffffffff8114610e8e5781811015610e7e578281836040517ffb8f41b2000000000000000000000000000000000000000000000000000000008152600401610e75939291906121b1565b60405180910390fd5b610e8d8484848403600061143b565b5b50505050565b600073ffffffffffffffffffffffffffffffffffffffff168373ffffffffffffffffffffffffffffffffffffffff1603610f065760006040517f96c6fd1e000000000000000000000000000000000000000000000000000000008152600401610efd91906121e8565b60405180910390fd5b600073ffffffffffffffffffffffffffffffffffffffff168273ffffffffffffffffffffffffffffffffffffffff1603610f785760006040517fec442f05000000000000000000000000000000000000000000000000000000008152600401610f6f91906121e8565b60405180910390fd5b610f83838383611621565b505050565b60007f02dd7bc7dec4dceedda775e58dd541e08a116c6c53815c0bd028192f7b626800905090565b610fc181610fbc610de6565b611631565b50565b600080610fcf610f88565b9050610fdb848461086c565b6110b957600181600001600086815260200190815260200160002060000160008573ffffffffffffffffffffffffffffffffffffffff1673ffffffffffffffffffffffffffffffffffffffff16815260200190815260200160002060006101000a81548160ff021916908315150217905550611055610de6565b73ffffffffffffffffffffffffffffffffffffffff168373ffffffffffffffffffffffffffffffffffffffff16857f2f8788117e7eff1d82e926ec794901d17c78024a50270940304540a733656f0d60405160405180910390a460019150506110bf565b60009150505b92915050565b6000806110d0610f88565b90506110dc848461086c565b156111bb57600081600001600086815260200190815260200160002060000160008573ffffffffffffffffffffffffffffffffffffffff1673ffffffffffffffffffffffffffffffffffffffff16815260200190815260200160002060006101000a81548160ff021916908315150217905550611157610de6565b73ffffffffffffffffffffffffffffffffffffffff168373ffffffffffffffffffffffffffffffffffffffff16857ff6391f5c32d9c69d2a47ea670b442974b53935d1edc7fd64eb21e047a839171b60405160405180910390a460019150506111c1565b60009150505b92915050565b6111cf611682565b60006111d961133d565b905060008160000160006101000a81548160ff0219169083151502179055507f5db9ee0a495bf2e6ff9c91a7834c1ba4fdd244a5e8aa4e537bd38aeae4b073aa611221610de6565b60405161122e91906121e8565b60405180910390a150565b600073ffffffffffffffffffffffffffffffffffffffff168273ffffffffffffffffffffffffffffffffffffffff16036112ab5760006040517fec442f050000000000000000000000000000000000000000000000000000000081526004016112a291906121e8565b60405180910390fd5b6112b760008383611621565b5050565b600073ffffffffffffffffffffffffffffffffffffffff168273ffffffffffffffffffffffffffffffffffffffff160361132d5760006040517f96c6fd1e00000000000000000000000000000000000000000000000000000000815260040161132491906121e8565b60405180910390fd5b61133982600083611621565b5050565b60007fcd5ed15c6e187e77e9aee88184c21f4f2182ab5827cb3b7e07fbedcd63f03300905090565b61136d6116c2565b600061137761133d565b905060018160000160006101000a81548160ff0219169083151502179055507f62e78cea01bee320cd4e420270b5ea74000d11b0c9f74754ebdbfc544b05a2586113bf610de6565b6040516113cc91906121e8565b60405180910390a150565b60007ff0c57e16840df040f15088dc2f81fe391c3923bec73e23a9662efc9c229c6a00905090565b611407611703565b6114118282611743565b5050565b61141d611703565b565b611427611703565b61142f611780565b565b611439611703565b565b6000611445610dbe565b9050600073ffffffffffffffffffffffffffffffffffffffff168573ffffffffffffffffffffffffffffffffffffffff16036114b95760006040517fe602df050000000000000000000000000000000000000000000000000000000081526004016114b091906121e8565b60405180910390fd5b600073ffffffffffffffffffffffffffffffffffffffff168473ffffffffffffffffffffffffffffffffffffffff160361152b5760006040517f94280d6200000000000000000000000000000000000000000000000000000000815260040161152291906121e8565b60405180910390fd5b828160010160008773ffffffffffffffffffffffffffffffffffffffff1673ffffffffffffffffffffffffffffffffffffffff16815260200190815260200160002060008673ffffffffffffffffffffffffffffffffffffffff1673ffffffffffffffffffffffffffffffffffffffff16815260200190815260200160002081905550811561161a578373ffffffffffffffffffffffffffffffffffffffff168573ffffffffffffffffffffffffffffffffffffffff167f8c5be1e5ebec7d5bd14f71427d1e84f3dd0314c0f7b2291e5b200ac8c7c3b925856040516116119190611c80565b60405180910390a35b5050505050565b61162c8383836117b4565b505050565b61163b828261086c565b61167e5780826040517fe2517d3f000000000000000000000000000000000000000000000000000000008152600401611675929190612203565b60405180910390fd5b5050565b61168a61079b565b6116c0576040517f8dfc202b00000000000000000000000000000000000000000000000000000000815260040160405180910390fd5b565b6116ca61079b565b15611701576040517fd93c066500000000000000000000000000000000000000000000000000000000815260040160405180910390fd5b565b61170b6117cc565b611741576040517fd7e6bcf800000000000000000000000000000000000000000000000000000000815260040160405180910390fd5b565b61174b611703565b6000611755610dbe565b90508281600301908161176891906123fd565b508181600401908161177a91906123fd565b50505050565b611788611703565b600061179261133d565b905060008160000160006101000a81548160ff02191690831515021790555050565b6117bc6116c2565b6117c78383836117ec565b505050565b60006117d66113d7565b60000160089054906101000a900460ff16905090565b60006117f6610dbe565b9050600073ffffffffffffffffffffffffffffffffffffffff168473ffffffffffffffffffffffffffffffffffffffff160361184c578181600201600082825461184091906124cf565b92505081905550611925565b60008160000160008673ffffffffffffffffffffffffffffffffffffffff1673ffffffffffffffffffffffffffffffffffffffff168152602001908152602001600020549050828110156118db578481846040517fe450d38c0000000000000000000000000000000000000000000000000000000081526004016118d2939291906121b1565b60405180910390fd5b8281038260000160008773ffffffffffffffffffffffffffffffffffffffff1673ffffffffffffffffffffffffffffffffffffffff16815260200190815260200160002081905550505b600073ffffffffffffffffffffffffffffffffffffffff168373ffffffffffffffffffffffffffffffffffffffff1603611970578181600201600082825403925050819055506119c0565b818160000160008573ffffffffffffffffffffffffffffffffffffffff1673ffffffffffffffffffffffffffffffffffffffff168152602001908152602001600020600082825401925050819055505b8273ffffffffffffffffffffffffffffffffffffffff168473ffffffffffffffffffffffffffffffffffffffff167fddf252ad1be2c89b69c2b068fc378daa952ba7f163c4a11628f55a4df523b3ef84604051611a1d9190611c80565b60405180910390a350505050565b600080fd5b60007fffffffff0000000000000000000000000000000000000000000000000000000082169050919050565b611a6581611a30565b8114611a7057600080fd5b50565b600081359050611a8281611a5c565b92915050565b600060208284031215611a9e57611a9d611a2b565b5b6000611aac84828501611a73565b91505092915050565b60008115159050919050565b611aca81611ab5565b82525050565b6000602082019050611ae56000830184611ac1565b92915050565b600081519050919050565b600082825260208201905092915050565b60005b83811015611b25578082015181840152602081019050611b0a565b60008484015250505050565b6000601f19601f8301169050919050565b6000611b4d82611aeb565b611b578185611af6565b9350611b67818560208601611b07565b611b7081611b31565b840191505092915050565b60006020820190508181036000830152611b958184611b42565b905092915050565b600073ffffffffffffffffffffffffffffffffffffffff82169050919050565b6000611bc882611b9d565b9050919050565b611bd881611bbd565b8114611be357600080fd5b50565b600081359050611bf581611bcf565b92915050565b6000819050919050565b611c0e81611bfb565b8114611c1957600080fd5b50565b600081359050611c2b81611c05565b92915050565b60008060408385031215611c4857611c47611a2b565b5b6000611c5685828601611be6565b9250506020611c6785828601611c1c565b9150509250929050565b611c7a81611bfb565b82525050565b6000602082019050611c956000830184611c71565b92915050565b600080600060608486031215611cb457611cb3611a2b565b5b6000611cc286828701611be6565b9350506020611cd386828701611be6565b9250506040611ce486828701611c1c565b9150509250925092565b6000819050919050565b611d0181611cee565b8114611d0c57600080fd5b50565b600081359050611d1e81611cf8565b92915050565b600060208284031215611d3a57611d39611a2b565b5b6000611d4884828501611d0f565b91505092915050565b611d5a81611cee565b82525050565b6000602082019050611d756000830184611d51565b92915050565b60008060408385031215611d9257611d91611a2b565b5b6000611da085828601611d0f565b9250506020611db185828601611be6565b9150509250929050565b600060ff82169050919050565b611dd181611dbb565b82525050565b6000602082019050611dec6000830184611dc8565b92915050565b600060208284031215611e0857611e07611a2b565b5b6000611e1684828501611c1c565b91505092915050565b600060208284031215611e3557611e34611a2b565b5b6000611e4384828501611be6565b91505092915050565b600080600060608486031215611e6557611e64611a2b565b5b6000611e7386828701611be6565b9350506020611e8486828701611be6565b9250506040611e9586828701611be6565b9150509250925092565b60008060408385031215611eb657611eb5611a2b565b5b6000611ec485828601611be6565b9250506020611ed585828601611be6565b9150509250929050565b7f4e487b7100000000000000000000000000000000000000000000000000000000600052602260045260246000fd5b60006002820490506001821680611f2657607f821691505b602082108103611f3957611f38611edf565b5b50919050565b7f4e487b7100000000000000000000000000000000000000000000000000000000600052601160045260246000fd5b60008160011c9050919050565b6000808291508390505b6001851115611fc557808604811115611fa157611fa0611f3f565b5b6001851615611fb05780820291505b8081029050611fbe85611f6e565b9450611f85565b94509492505050565b600082611fde576001905061209a565b81611fec576000905061209a565b8160018114612002576002811461200c5761203b565b600191505061209a565b60ff84111561201e5761201d611f3f565b5b8360020a91508482111561203557612034611f3f565b5b5061209a565b5060208310610133831016604e8410600b84101617156120705782820a90508381111561206b5761206a611f3f565b5b61209a565b61207d8484846001611f7b565b9250905081840481111561209457612093611f3f565b5b81810290505b9392505050565b60006120ac82611bfb565b91506120b783611dbb565b92506120e47fffffffffffffffffffffffffffffffffffffffffffffffffffffffffffffffff8484611fce565b905092915050565b60006120f782611bfb565b915061210283611bfb565b925082820261211081611bfb565b9150828204841483151761212757612126611f3f565b5b5092915050565b6000819050919050565b600067ffffffffffffffff82169050919050565b6000819050919050565b600061217161216c6121678461212e565b61214c565b612138565b9050919050565b61218181612156565b82525050565b600060208201905061219c6000830184612178565b92915050565b6121ab81611bbd565b82525050565b60006060820190506121c660008301866121a2565b6121d36020830185611c71565b6121e06040830184611c71565b949350505050565b60006020820190506121fd60008301846121a2565b92915050565b600060408201905061221860008301856121a2565b6122256020830184611d51565b9392505050565b7f4e487b7100000000000000000000000000000000000000000000000000000000600052604160045260246000fd5b60008190508160005260206000209050919050565b60006020601f8301049050919050565b600082821b905092915050565b6000600883026122bd7fffffffffffffffffffffffffffffffffffffffffffffffffffffffffffffffff82612280565b6122c78683612280565b95508019841693508086168417925050509392505050565b60006122fa6122f56122f084611bfb565b61214c565b611bfb565b9050919050565b6000819050919050565b612314836122df565b61232861232082612301565b84845461228d565b825550505050565b600090565b61233d612330565b61234881848461230b565b505050565b5b8181101561236c57612361600082612335565b60018101905061234e565b5050565b601f8211156123b1576123828161225b565b61238b84612270565b8101602085101561239a578190505b6123ae6123a685612270565b83018261234d565b50505b505050565b600082821c905092915050565b60006123d4600019846008026123b6565b1980831691505092915050565b60006123ed83836123c3565b9150826002028217905092915050565b61240682611aeb565b67ffffffffffffffff81111561241f5761241e61222c565b5b6124298254611f0e565b612434828285612370565b600060209050601f8311600181146124675760008415612455578287015190505b61245f85826123e1565b8655506124c7565b601f1984166124758661225b565b60005b8281101561249d57848901518255600182019150602085019450602081019050612478565b868310156124ba57848901516124b6601f8916826123c3565b8355505b6001600288020188555050505b505050505050565b60006124da82611bfb565b91506124e583611bfb565b92508282019050808211156124fd576124fc611f3f565b5b9291505056fea2646970667358221220cc2a8932f21318f1cb17ff4e3a1297a47fffa580fa8e2698961e834023c7194864736f6c63430008180033",
  "linkReferences": {},
  "deployedLinkReferences": {}
}