{
  "_format": "hh-sol-artifact-1",
  "contractName": "SolarGreen",
  "sourceName": "contracts/SolarGreen.sol",
  "abi": [
    {
      "inputs": [],
      "stateMutability": "nonpayable",
      "type": "constructor"
    },
    {
      "inputs": [
        {
          "internalType": "address",
          "name": "spender",
          "type": "address"
        },
        {
          "internalType": "uint256",
          "name": "allowance",
          "type": "uint256"
        },
        {
          "internalType": "uint256",
          "name": "needed",
          "type": "uint256"
        }
      ],
      "name": "ERC20InsufficientAllowance",
      "type": "error"
    },
    {
      "inputs": [
        {
          "internalType": "address",
          "name": "sender",
          "type": "address"
        },
        {
          "internalType": "uint256",
          "name": "balance",
          "type": "uint256"
        },
        {
          "internalType": "uint256",
          "name": "needed",
          "type": "uint256"
        }
      ],
      "name": "ERC20InsufficientBalance",
      "type": "error"
    },
    {
      "inputs": [
        {
          "internalType": "address",
          "name": "approver",
          "type": "address"
        }
      ],
      "name": "ERC20InvalidApprover",
      "type": "error"
    },
    {
      "inputs": [
        {
          "internalType": "address",
          "name": "receiver",
          "type": "address"
        }
      ],
      "name": "ERC20InvalidReceiver",
      "type": "error"
    },
    {
      "inputs": [
        {
          "internalType": "address",
          "name": "sender",
          "type": "address"
        }
      ],
      "name": "ERC20InvalidSender",
      "type": "error"
    },
    {
      "inputs": [
        {
          "internalType": "address",
          "name": "spender",
          "type": "address"
        }
      ],
      "name": "ERC20InvalidSpender",
      "type": "error"
    },
    {
      "inputs": [],
      "name": "EnforcedPause",
      "type": "error"
    },
    {
      "inputs": [],
      "name": "ExpectedPause",
      "type": "error"
    },
    {
      "inputs": [],
      "name": "InvalidInitialization",
      "type": "error"
    },
    {
      "inputs": [],
      "name": "NotInitializing",
      "type": "error"
    },
    {
      "inputs": [
        {
          "internalType": "address",
          "name": "owner",
          "type": "address"
        }
      ],
      "name": "OwnableInvalidOwner",
      "type": "error"
    },
    {
      "inputs": [
        {
          "internalType": "address",
          "name": "account",
          "type": "address"
        }
      ],
      "name": "OwnableUnauthorizedAccount",
      "type": "error"
    },
    {
      "anonymous": false,
      "inputs": [
        {
          "indexed": true,
          "internalType": "address",
          "name": "owner",
          "type": "address"
        },
        {
          "indexed": true,
          "internalType": "address",
          "name": "spender",
          "type": "address"
        },
        {
          "indexed": false,
          "internalType": "uint256",
          "name": "value",
          "type": "uint256"
        }
      ],
      "name": "Approval",
      "type": "event"
    },
    {
      "anonymous": false,
      "inputs": [
        {
          "indexed": false,
          "internalType": "uint64",
          "name": "version",
          "type": "uint64"
        }
      ],
      "name": "Initialized",
      "type": "event"
    },
    {
      "anonymous": false,
      "inputs": [
        {
          "indexed": true,
          "internalType": "address",
          "name": "previousOwner",
          "type": "address"
        },
        {
          "indexed": true,
          "internalType": "address",
          "name": "newOwner",
          "type": "address"
        }
      ],
      "name": "OwnershipTransferred",
      "type": "event"
    },
    {
      "anonymous": false,
      "inputs": [
        {
          "indexed": false,
          "internalType": "address",
          "name": "account",
          "type": "address"
        }
      ],
      "name": "Paused",
      "type": "event"
    },
    {
      "anonymous": false,
      "inputs": [
        {
          "indexed": true,
          "internalType": "address",
          "name": "from",
          "type": "address"
        },
        {
          "indexed": true,
          "internalType": "address",
          "name": "to",
          "type": "address"
        },
        {
          "indexed": false,
          "internalType": "uint256",
          "name": "value",
          "type": "uint256"
        }
      ],
      "name": "Transfer",
      "type": "event"
    },
    {
      "anonymous": false,
      "inputs": [
        {
          "indexed": false,
          "internalType": "address",
          "name": "account",
          "type": "address"
        }
      ],
      "name": "Unpaused",
      "type": "event"
    },
    {
      "inputs": [
        {
          "internalType": "address",
          "name": "owner",
          "type": "address"
        },
        {
          "internalType": "address",
          "name": "spender",
          "type": "address"
        }
      ],
      "name": "allowance",
      "outputs": [
        {
          "internalType": "uint256",
          "name": "",
          "type": "uint256"
        }
      ],
      "stateMutability": "view",
      "type": "function"
    },
    {
      "inputs": [
        {
          "internalType": "address",
          "name": "spender",
          "type": "address"
        },
        {
          "internalType": "uint256",
          "name": "value",
          "type": "uint256"
        }
      ],
      "name": "approve",
      "outputs": [
        {
          "internalType": "bool",
          "name": "",
          "type": "bool"
        }
      ],
      "stateMutability": "nonpayable",
      "type": "function"
    },
    {
      "inputs": [
        {
          "internalType": "address",
          "name": "account",
          "type": "address"
        }
      ],
      "name": "balanceOf",
      "outputs": [
        {
          "internalType": "uint256",
          "name": "",
          "type": "uint256"
        }
      ],
      "stateMutability": "view",
      "type": "function"
    },
    {
      "inputs": [
        {
          "internalType": "uint256",
          "name": "value",
          "type": "uint256"
        }
      ],
      "name": "burn",
      "outputs": [],
      "stateMutability": "nonpayable",
      "type": "function"
    },
    {
      "inputs": [
        {
          "internalType": "address",
          "name": "account",
          "type": "address"
        },
        {
          "internalType": "uint256",
          "name": "value",
          "type": "uint256"
        }
      ],
      "name": "burnFrom",
      "outputs": [],
      "stateMutability": "nonpayable",
      "type": "function"
    },
    {
      "inputs": [],
      "name": "decimals",
      "outputs": [
        {
          "internalType": "uint8",
          "name": "",
          "type": "uint8"
        }
      ],
      "stateMutability": "view",
      "type": "function"
    },
    {
      "inputs": [
        {
          "internalType": "address",
          "name": "initialOwner",
          "type": "address"
        }
      ],
      "name": "initialize",
      "outputs": [],
      "stateMutability": "nonpayable",
      "type": "function"
    },
    {
      "inputs": [
        {
          "internalType": "address",
          "name": "to",
          "type": "address"
        },
        {
          "internalType": "uint256",
          "name": "amount",
          "type": "uint256"
        }
      ],
      "name": "mint",
      "outputs": [],
      "stateMutability": "nonpayable",
      "type": "function"
    },
    {
      "inputs": [],
      "name": "name",
      "outputs": [
        {
          "internalType": "string",
          "name": "",
          "type": "string"
        }
      ],
      "stateMutability": "view",
      "type": "function"
    },
    {
      "inputs": [],
      "name": "owner",
      "outputs": [
        {
          "internalType": "address",
          "name": "",
          "type": "address"
        }
      ],
      "stateMutability": "view",
      "type": "function"
    },
    {
      "inputs": [],
      "name": "pause",
      "outputs": [],
      "stateMutability": "nonpayable",
      "type": "function"
    },
    {
      "inputs": [],
      "name": "paused",
      "outputs": [
        {
          "internalType": "bool",
          "name": "",
          "type": "bool"
        }
      ],
      "stateMutability": "view",
      "type": "function"
    },
    {
      "inputs": [],
      "name": "renounceOwnership",
      "outputs": [],
      "stateMutability": "nonpayable",
      "type": "function"
    },
    {
      "inputs": [],
      "name": "symbol",
      "outputs": [
        {
          "internalType": "string",
          "name": "",
          "type": "string"
        }
      ],
      "stateMutability": "view",
      "type": "function"
    },
    {
      "inputs": [],
      "name": "totalSupply",
      "outputs": [
        {
          "internalType": "uint256",
          "name": "",
          "type": "uint256"
        }
      ],
      "stateMutability": "view",
      "type": "function"
    },
    {
      "inputs": [
        {
          "internalType": "address",
          "name": "to",
          "type": "address"
        },
        {
          "internalType": "uint256",
          "name": "value",
          "type": "uint256"
        }
      ],
      "name": "transfer",
      "outputs": [
        {
          "internalType": "bool",
          "name": "",
          "type": "bool"
        }
      ],
      "stateMutability": "nonpayable",
      "type": "function"
    },
    {
      "inputs": [
        {
          "internalType": "address",
          "name": "from",
          "type": "address"
        },
        {
          "internalType": "address",
          "name": "to",
          "type": "address"
        },
        {
          "internalType": "uint256",
          "name": "value",
          "type": "uint256"
        }
      ],
      "name": "transferFrom",
      "outputs": [
        {
          "internalType": "bool",
          "name": "",
          "type": "bool"
        }
      ],
      "stateMutability": "nonpayable",
      "type": "function"
    },
    {
      "inputs": [
        {
          "internalType": "address",
          "name": "newOwner",
          "type": "address"
        }
      ],
      "name": "transferOwnership",
      "outputs": [],
      "stateMutability": "nonpayable",
      "type": "function"
    },
    {
      "inputs": [],
      "name": "unpause",
      "outputs": [],
      "stateMutability": "nonpayable",
      "type": "function"
    }
  ],
  "bytecode": "0x60806040523480156200001157600080fd5b50620000226200002860201b60201c565b6200019c565b60006200003a6200013260201b60201c565b90508060000160089054906101000a900460ff161562000086576040517ff92ee8a900000000000000000000000000000000000000000000000000000000815260040160405180910390fd5b67ffffffffffffffff80168160000160009054906101000a900467ffffffffffffffff1667ffffffffffffffff16146200012f5767ffffffffffffffff8160000160006101000a81548167ffffffffffffffff021916908367ffffffffffffffff1602179055507fc7f505b2f371ae2175ee4913f4499e1f2633a7b5936321eed1cdaeb6115181d267ffffffffffffffff6040516200012691906200017f565b60405180910390a15b50565b60007ff0c57e16840df040f15088dc2f81fe391c3923bec73e23a9662efc9c229c6a00905090565b600067ffffffffffffffff82169050919050565b62000179816200015a565b82525050565b60006020820190506200019660008301846200016e565b92915050565b611f1080620001ac6000396000f3fe608060405234801561001057600080fd5b50600436106101215760003560e01c806370a08231116100ad57806395d89b411161007157806395d89b41146102be578063a9059cbb146102dc578063c4d66de81461030c578063dd62ed3e14610328578063f2fde38b1461035857610121565b806370a0823114610240578063715018a61461027057806379cc67901461027a5780638456cb59146102965780638da5cb5b146102a057610121565b8063313ce567116100f4578063313ce567146101c25780633f4ba83a146101e057806340c10f19146101ea57806342966c68146102065780635c975abb1461022257610121565b806306fdde0314610126578063095ea7b31461014457806318160ddd1461017457806323b872dd14610192575b600080fd5b61012e610374565b60405161013b9190611660565b60405180910390f35b61015e6004803603810190610159919061171b565b610415565b60405161016b9190611776565b60405180910390f35b61017c610438565b60405161018991906117a0565b60405180910390f35b6101ac60048036038101906101a791906117bb565b610450565b6040516101b99190611776565b60405180910390f35b6101ca61047f565b6040516101d7919061182a565b60405180910390f35b6101e8610488565b005b61020460048036038101906101ff919061171b565b61049a565b005b610220600480360381019061021b9190611845565b6104b0565b005b61022a6104c4565b6040516102379190611776565b60405180910390f35b61025a60048036038101906102559190611872565b6104e9565b60405161026791906117a0565b60405180910390f35b610278610540565b005b610294600480360381019061028f919061171b565b610554565b005b61029e610574565b005b6102a8610586565b6040516102b591906118ae565b60405180910390f35b6102c66105be565b6040516102d39190611660565b60405180910390f35b6102f660048036038101906102f1919061171b565b61065f565b6040516103039190611776565b60405180910390f35b61032660048036038101906103219190611872565b610682565b005b610342600480360381019061033d91906118c9565b6108c2565b60405161034f91906117a0565b60405180910390f35b610372600480360381019061036d9190611872565b610957565b005b606060006103806109dd565b905080600301805461039190611938565b80601f01602080910402602001604051908101604052809291908181526020018280546103bd90611938565b801561040a5780601f106103df5761010080835404028352916020019161040a565b820191906000526020600020905b8154815290600101906020018083116103ed57829003601f168201915b505050505091505090565b600080610420610a05565b905061042d818585610a0d565b600191505092915050565b6000806104436109dd565b9050806002015491505090565b60008061045b610a05565b9050610468858285610a1f565b610473858585610ab3565b60019150509392505050565b60006012905090565b610490610ba7565b610498610c2e565b565b6104a2610ba7565b6104ac8282610ca0565b5050565b6104c16104bb610a05565b82610d22565b50565b6000806104cf610da4565b90508060000160009054906101000a900460ff1691505090565b6000806104f46109dd565b90508060000160008473ffffffffffffffffffffffffffffffffffffffff1673ffffffffffffffffffffffffffffffffffffffff16815260200190815260200160002054915050919050565b610548610ba7565b6105526000610dcc565b565b61056682610560610a05565b83610a1f565b6105708282610d22565b5050565b61057c610ba7565b610584610ea3565b565b600080610591610f15565b90508060000160009054906101000a900473ffffffffffffffffffffffffffffffffffffffff1691505090565b606060006105ca6109dd565b90508060040180546105db90611938565b80601f016020809104026020016040519081016040528092919081815260200182805461060790611938565b80156106545780601f1061062957610100808354040283529160200191610654565b820191906000526020600020905b81548152906001019060200180831161063757829003601f168201915b505050505091505090565b60008061066a610a05565b9050610677818585610ab3565b600191505092915050565b600061068c610f3d565b905060008160000160089054906101000a900460ff1615905060008260000160009054906101000a900467ffffffffffffffff1690506000808267ffffffffffffffff161480156106da5750825b9050600060018367ffffffffffffffff1614801561070f575060003073ffffffffffffffffffffffffffffffffffffffff163b145b90508115801561071d575080155b15610754576040517ff92ee8a900000000000000000000000000000000000000000000000000000000815260040160405180910390fd5b60018560000160006101000a81548167ffffffffffffffff021916908367ffffffffffffffff16021790555083156107a45760018560000160086101000a81548160ff0219169083151502179055505b6108186040518060400160405280600b81526020017f536f6c617220477265656e0000000000000000000000000000000000000000008152506040518060400160405280600381526020017f5347520000000000000000000000000000000000000000000000000000000000815250610f65565b610820610f7b565b610828610f85565b61083186610f97565b61085e3361083d61047f565b600a6108499190611acb565b6402540be4006108599190611b16565b610ca0565b83156108ba5760008560000160086101000a81548160ff0219169083151502179055507fc7f505b2f371ae2175ee4913f4499e1f2633a7b5936321eed1cdaeb6115181d260016040516108b19190611bb1565b60405180910390a15b505050505050565b6000806108cd6109dd565b90508060010160008573ffffffffffffffffffffffffffffffffffffffff1673ffffffffffffffffffffffffffffffffffffffff16815260200190815260200160002060008473ffffffffffffffffffffffffffffffffffffffff1673ffffffffffffffffffffffffffffffffffffffff1681526020019081526020016000205491505092915050565b61095f610ba7565b600073ffffffffffffffffffffffffffffffffffffffff168173ffffffffffffffffffffffffffffffffffffffff16036109d15760006040517f1e4fbdf70000000000000000000000000000000000000000000000000000000081526004016109c891906118ae565b60405180910390fd5b6109da81610dcc565b50565b60007f52c63247e1f47db19d5ce0460030c497f067ca4cebf71ba98eeadabe20bace00905090565b600033905090565b610a1a8383836001610fab565b505050565b6000610a2b84846108c2565b90507fffffffffffffffffffffffffffffffffffffffffffffffffffffffffffffffff8114610aad5781811015610a9d578281836040517ffb8f41b2000000000000000000000000000000000000000000000000000000008152600401610a9493929190611bcc565b60405180910390fd5b610aac84848484036000610fab565b5b50505050565b600073ffffffffffffffffffffffffffffffffffffffff168373ffffffffffffffffffffffffffffffffffffffff1603610b255760006040517f96c6fd1e000000000000000000000000000000000000000000000000000000008152600401610b1c91906118ae565b60405180910390fd5b600073ffffffffffffffffffffffffffffffffffffffff168273ffffffffffffffffffffffffffffffffffffffff1603610b975760006040517fec442f05000000000000000000000000000000000000000000000000000000008152600401610b8e91906118ae565b60405180910390fd5b610ba2838383611191565b505050565b610baf610a05565b73ffffffffffffffffffffffffffffffffffffffff16610bcd610586565b73ffffffffffffffffffffffffffffffffffffffff1614610c2c57610bf0610a05565b6040517f118cdaa7000000000000000000000000000000000000000000000000000000008152600401610c2391906118ae565b60405180910390fd5b565b610c366111a1565b6000610c40610da4565b905060008160000160006101000a81548160ff0219169083151502179055507f5db9ee0a495bf2e6ff9c91a7834c1ba4fdd244a5e8aa4e537bd38aeae4b073aa610c88610a05565b604051610c9591906118ae565b60405180910390a150565b600073ffffffffffffffffffffffffffffffffffffffff168273ffffffffffffffffffffffffffffffffffffffff1603610d125760006040517fec442f05000000000000000000000000000000000000000000000000000000008152600401610d0991906118ae565b60405180910390fd5b610d1e60008383611191565b5050565b600073ffffffffffffffffffffffffffffffffffffffff168273ffffffffffffffffffffffffffffffffffffffff1603610d945760006040517f96c6fd1e000000000000000000000000000000000000000000000000000000008152600401610d8b91906118ae565b60405180910390fd5b610da082600083611191565b5050565b60007fcd5ed15c6e187e77e9aee88184c21f4f2182ab5827cb3b7e07fbedcd63f03300905090565b6000610dd6610f15565b905060008160000160009054906101000a900473ffffffffffffffffffffffffffffffffffffffff169050828260000160006101000a81548173ffffffffffffffffffffffffffffffffffffffff021916908373ffffffffffffffffffffffffffffffffffffffff1602179055508273ffffffffffffffffffffffffffffffffffffffff168173ffffffffffffffffffffffffffffffffffffffff167f8be0079c531659141344cd1fd0a4f28419497f9722a3daafe3b4186f6b6457e060405160405180910390a3505050565b610eab6111e1565b6000610eb5610da4565b905060018160000160006101000a81548160ff0219169083151502179055507f62e78cea01bee320cd4e420270b5ea74000d11b0c9f74754ebdbfc544b05a258610efd610a05565b604051610f0a91906118ae565b60405180910390a150565b60007f9016d09d72d40fdae2fd8ceac6b6234c7706214fd39c1cd1e609a0528c199300905090565b60007ff0c57e16840df040f15088dc2f81fe391c3923bec73e23a9662efc9c229c6a00905090565b610f6d611222565b610f778282611262565b5050565b610f83611222565b565b610f8d611222565b610f9561129f565b565b610f9f611222565b610fa8816112d3565b50565b6000610fb56109dd565b9050600073ffffffffffffffffffffffffffffffffffffffff168573ffffffffffffffffffffffffffffffffffffffff16036110295760006040517fe602df0500000000000000000000000000000000000000000000000000000000815260040161102091906118ae565b60405180910390fd5b600073ffffffffffffffffffffffffffffffffffffffff168473ffffffffffffffffffffffffffffffffffffffff160361109b5760006040517f94280d6200000000000000000000000000000000000000000000000000000000815260040161109291906118ae565b60405180910390fd5b828160010160008773ffffffffffffffffffffffffffffffffffffffff1673ffffffffffffffffffffffffffffffffffffffff16815260200190815260200160002060008673ffffffffffffffffffffffffffffffffffffffff1673ffffffffffffffffffffffffffffffffffffffff16815260200190815260200160002081905550811561118a578373ffffffffffffffffffffffffffffffffffffffff168573ffffffffffffffffffffffffffffffffffffffff167f8c5be1e5ebec7d5bd14f71427d1e84f3dd0314c0f7b2291e5b200ac8c7c3b9258560405161118191906117a0565b60405180910390a35b5050505050565b61119c838383611359565b505050565b6111a96104c4565b6111df576040517f8dfc202b00000000000000000000000000000000000000000000000000000000815260040160405180910390fd5b565b6111e96104c4565b15611220576040517fd93c066500000000000000000000000000000000000000000000000000000000815260040160405180910390fd5b565b61122a611371565b611260576040517fd7e6bcf800000000000000000000000000000000000000000000000000000000815260040160405180910390fd5b565b61126a611222565b60006112746109dd565b9050828160030190816112879190611dd4565b50818160040190816112999190611dd4565b50505050565b6112a7611222565b60006112b1610da4565b905060008160000160006101000a81548160ff02191690831515021790555050565b6112db611222565b600073ffffffffffffffffffffffffffffffffffffffff168173ffffffffffffffffffffffffffffffffffffffff160361134d5760006040517f1e4fbdf700000000000000000000000000000000000000000000000000000000815260040161134491906118ae565b60405180910390fd5b61135681610dcc565b50565b6113616111e1565b61136c838383611391565b505050565b600061137b610f3d565b60000160089054906101000a900460ff16905090565b600061139b6109dd565b9050600073ffffffffffffffffffffffffffffffffffffffff168473ffffffffffffffffffffffffffffffffffffffff16036113f157818160020160008282546113e59190611ea6565b925050819055506114ca565b60008160000160008673ffffffffffffffffffffffffffffffffffffffff1673ffffffffffffffffffffffffffffffffffffffff16815260200190815260200160002054905082811015611480578481846040517fe450d38c00000000000000000000000000000000000000000000000000000000815260040161147793929190611bcc565b60405180910390fd5b8281038260000160008773ffffffffffffffffffffffffffffffffffffffff1673ffffffffffffffffffffffffffffffffffffffff16815260200190815260200160002081905550505b600073ffffffffffffffffffffffffffffffffffffffff168373ffffffffffffffffffffffffffffffffffffffff160361151557818160020160008282540392505081905550611565565b818160000160008573ffffffffffffffffffffffffffffffffffffffff1673ffffffffffffffffffffffffffffffffffffffff168152602001908152602001600020600082825401925050819055505b8273ffffffffffffffffffffffffffffffffffffffff168473ffffffffffffffffffffffffffffffffffffffff167fddf252ad1be2c89b69c2b068fc378daa952ba7f163c4a11628f55a4df523b3ef846040516115c291906117a0565b60405180910390a350505050565b600081519050919050565b600082825260208201905092915050565b60005b8381101561160a5780820151818401526020810190506115ef565b60008484015250505050565b6000601f19601f8301169050919050565b6000611632826115d0565b61163c81856115db565b935061164c8185602086016115ec565b61165581611616565b840191505092915050565b6000602082019050818103600083015261167a8184611627565b905092915050565b600080fd5b600073ffffffffffffffffffffffffffffffffffffffff82169050919050565b60006116b282611687565b9050919050565b6116c2816116a7565b81146116cd57600080fd5b50565b6000813590506116df816116b9565b92915050565b6000819050919050565b6116f8816116e5565b811461170357600080fd5b50565b600081359050611715816116ef565b92915050565b6000806040838503121561173257611731611682565b5b6000611740858286016116d0565b925050602061175185828601611706565b9150509250929050565b60008115159050919050565b6117708161175b565b82525050565b600060208201905061178b6000830184611767565b92915050565b61179a816116e5565b82525050565b60006020820190506117b56000830184611791565b92915050565b6000806000606084860312156117d4576117d3611682565b5b60006117e2868287016116d0565b93505060206117f3868287016116d0565b925050604061180486828701611706565b9150509250925092565b600060ff82169050919050565b6118248161180e565b82525050565b600060208201905061183f600083018461181b565b92915050565b60006020828403121561185b5761185a611682565b5b600061186984828501611706565b91505092915050565b60006020828403121561188857611887611682565b5b6000611896848285016116d0565b91505092915050565b6118a8816116a7565b82525050565b60006020820190506118c3600083018461189f565b92915050565b600080604083850312156118e0576118df611682565b5b60006118ee858286016116d0565b92505060206118ff858286016116d0565b9150509250929050565b7f4e487b7100000000000000000000000000000000000000000000000000000000600052602260045260246000fd5b6000600282049050600182168061195057607f821691505b60208210810361196357611962611909565b5b50919050565b7f4e487b7100000000000000000000000000000000000000000000000000000000600052601160045260246000fd5b60008160011c9050919050565b6000808291508390505b60018511156119ef578086048111156119cb576119ca611969565b5b60018516156119da5780820291505b80810290506119e885611998565b94506119af565b94509492505050565b600082611a085760019050611ac4565b81611a165760009050611ac4565b8160018114611a2c5760028114611a3657611a65565b6001915050611ac4565b60ff841115611a4857611a47611969565b5b8360020a915084821115611a5f57611a5e611969565b5b50611ac4565b5060208310610133831016604e8410600b8410161715611a9a5782820a905083811115611a9557611a94611969565b5b611ac4565b611aa784848460016119a5565b92509050818404811115611abe57611abd611969565b5b81810290505b9392505050565b6000611ad6826116e5565b9150611ae18361180e565b9250611b0e7fffffffffffffffffffffffffffffffffffffffffffffffffffffffffffffffff84846119f8565b905092915050565b6000611b21826116e5565b9150611b2c836116e5565b9250828202611b3a816116e5565b91508282048414831517611b5157611b50611969565b5b5092915050565b6000819050919050565b600067ffffffffffffffff82169050919050565b6000819050919050565b6000611b9b611b96611b9184611b58565b611b76565b611b62565b9050919050565b611bab81611b80565b82525050565b6000602082019050611bc66000830184611ba2565b92915050565b6000606082019050611be1600083018661189f565b611bee6020830185611791565b611bfb6040830184611791565b949350505050565b7f4e487b7100000000000000000000000000000000000000000000000000000000600052604160045260246000fd5b60008190508160005260206000209050919050565b60006020601f8301049050919050565b600082821b905092915050565b600060088302611c947fffffffffffffffffffffffffffffffffffffffffffffffffffffffffffffffff82611c57565b611c9e8683611c57565b95508019841693508086168417925050509392505050565b6000611cd1611ccc611cc7846116e5565b611b76565b6116e5565b9050919050565b6000819050919050565b611ceb83611cb6565b611cff611cf782611cd8565b848454611c64565b825550505050565b600090565b611d14611d07565b611d1f818484611ce2565b505050565b5b81811015611d4357611d38600082611d0c565b600181019050611d25565b5050565b601f821115611d8857611d5981611c32565b611d6284611c47565b81016020851015611d71578190505b611d85611d7d85611c47565b830182611d24565b50505b505050565b600082821c905092915050565b6000611dab60001984600802611d8d565b1980831691505092915050565b6000611dc48383611d9a565b9150826002028217905092915050565b611ddd826115d0565b67ffffffffffffffff811115611df657611df5611c03565b5b611e008254611938565b611e0b828285611d47565b600060209050601f831160018114611e3e5760008415611e2c578287015190505b611e368582611db8565b865550611e9e565b601f198416611e4c86611c32565b60005b82811015611e7457848901518255600182019150602085019450602081019050611e4f565b86831015611e915784890151611e8d601f891682611d9a565b8355505b6001600288020188555050505b505050505050565b6000611eb1826116e5565b9150611ebc836116e5565b9250828201905080821115611ed457611ed3611969565b5b9291505056fea26469706673582212202d2139efb2b8df7add8396543902ed760f71cf4c41ad03c789c066377bdadf8464736f6c63430008180033",
  "linkReferences": {},
  "deployedLinkReferences": {}
}